{
  "address": "0xe7f1725E7734CE288F8367e1Bb143E90bb3F0512",
  "abi": [
    {
      "inputs": [
        {
          "internalType": "address",
          "name": "priceFeedAddress",
          "type": "address"
        }
      ],
      "stateMutability": "nonpayable",
      "type": "constructor"
    },
    {
      "inputs": [],
      "name": "FundMe_NotOwner",
      "type": "error"
    },
    {
      "inputs": [],
      "name": "Fund",
      "outputs": [],
      "stateMutability": "payable",
      "type": "function"
    },
    {
      "inputs": [],
      "name": "MIN_USD",
      "outputs": [
        {
          "internalType": "uint256",
          "name": "",
          "type": "uint256"
        }
      ],
      "stateMutability": "view",
      "type": "function"
    },
    {
      "inputs": [],
      "name": "Withdraw",
      "outputs": [],
      "stateMutability": "nonpayable",
      "type": "function"
    },
    {
      "inputs": [
        {
          "internalType": "address",
          "name": "_address",
          "type": "address"
        }
      ],
      "name": "getAddressToFundedAmount",
      "outputs": [
        {
          "internalType": "uint256",
          "name": "",
          "type": "uint256"
        }
      ],
      "stateMutability": "view",
      "type": "function"
    },
    {
      "inputs": [
        {
          "internalType": "uint256",
          "name": "index",
          "type": "uint256"
        }
      ],
      "name": "getFunder",
      "outputs": [
        {
          "internalType": "address",
          "name": "",
          "type": "address"
        }
      ],
      "stateMutability": "view",
      "type": "function"
    },
    {
      "inputs": [],
      "name": "getOwner",
      "outputs": [
        {
          "internalType": "address",
          "name": "",
          "type": "address"
        }
      ],
      "stateMutability": "view",
      "type": "function"
    }
  ],
  "transactionHash": "0x4c8873c1b0f209d4d38afc1c7ff518ca804ecd0fb0262921e41155b987dcf3a7",
  "args": [
    "0x5FbDB2315678afecb367f032d93F642f64180aa3"
  ],
  "numDeployments": 1,
  "solcInputHash": "9e74cf6701941511935f85c38e4943d2",
  "bytecode": "0x60a060405234801561001057600080fd5b50604051610d6e380380610d6e83398181016040528101906100329190610110565b80600260006101000a81548173ffffffffffffffffffffffffffffffffffffffff021916908373ffffffffffffffffffffffffffffffffffffffff1602179055503373ffffffffffffffffffffffffffffffffffffffff1660808173ffffffffffffffffffffffffffffffffffffffff16815250505061013d565b600080fd5b600073ffffffffffffffffffffffffffffffffffffffff82169050919050565b60006100dd826100b2565b9050919050565b6100ed816100d2565b81146100f857600080fd5b50565b60008151905061010a816100e4565b92915050565b600060208284031215610126576101256100ad565b5b6000610134848285016100fb565b91505092915050565b608051610c08610166600039600081816101a30152818161033001526104f20152610c086000f3fe6080604052600436106100555760003560e01c8063213dbea21461005a578063408904791461008557806357ea89b6146100c25780636ce1417e146100d9578063893d20e8146100e3578063d7b4750c1461010e575b600080fd5b34801561006657600080fd5b5061006f61014b565b60405161007c91906106ea565b60405180910390f35b34801561009157600080fd5b506100ac60048036038101906100a79190610768565b610158565b6040516100b991906106ea565b60405180910390f35b3480156100ce57600080fd5b506100d76101a1565b005b6100e16103c5565b005b3480156100ef57600080fd5b506100f86104ee565b60405161010591906107a4565b60405180910390f35b34801561011a57600080fd5b50610135600480360381019061013091906107eb565b610516565b60405161014291906107a4565b60405180910390f35b6802b5e3af16b188000081565b6000600160008373ffffffffffffffffffffffffffffffffffffffff1673ffffffffffffffffffffffffffffffffffffffff168152602001908152602001600020549050919050565b7f000000000000000000000000000000000000000000000000000000000000000073ffffffffffffffffffffffffffffffffffffffff163373ffffffffffffffffffffffffffffffffffffffff1614610226576040517f10e0797900000000000000000000000000000000000000000000000000000000815260040160405180910390fd5b60005b6000805490508110156102cb5760006001600080848154811061024f5761024e610818565b5b9060005260206000200160009054906101000a900473ffffffffffffffffffffffffffffffffffffffff1673ffffffffffffffffffffffffffffffffffffffff1673ffffffffffffffffffffffffffffffffffffffff1681526020019081526020016000208190555080806102c390610876565b915050610229565b50600067ffffffffffffffff8111156102e7576102e66108be565b5b6040519080825280602002602001820160405280156103155781602001602082028036833780820191505090505b506000908051906020019061032b92919061062a565b5060007f000000000000000000000000000000000000000000000000000000000000000073ffffffffffffffffffffffffffffffffffffffff16476040516103729061091e565b60006040518083038185875af1925050503d80600081146103af576040519150601f19603f3d011682016040523d82523d6000602084013e6103b4565b606091505b50509050806103c257600080fd5b50565b6802b5e3af16b1880000610404600260009054906101000a900473ffffffffffffffffffffffffffffffffffffffff163461055d90919063ffffffff16565b1015610445576040517f08c379a000000000000000000000000000000000000000000000000000000000815260040161043c90610990565b60405180910390fd5b6000339080600181540180825580915050600190039060005260206000200160009091909190916101000a81548173ffffffffffffffffffffffffffffffffffffffff021916908373ffffffffffffffffffffffffffffffffffffffff16021790555034600160003373ffffffffffffffffffffffffffffffffffffffff1673ffffffffffffffffffffffffffffffffffffffff16815260200190815260200160002081905550565b60007f0000000000000000000000000000000000000000000000000000000000000000905090565b600080828154811061052b5761052a610818565b5b9060005260206000200160009054906101000a900473ffffffffffffffffffffffffffffffffffffffff169050919050565b60008061056983610599565b90506000670de0b6b3a7640000858361058291906109b0565b61058c9190610a21565b9050809250505092915050565b6000808273ffffffffffffffffffffffffffffffffffffffff1663feaf968c6040518163ffffffff1660e01b815260040160a060405180830381865afa1580156105e7573d6000803e3d6000fd5b505050506040513d601f19601f8201168201806040525081019061060b9190610adf565b5050509150506402540be400816106229190610b5a565b915050919050565b8280548282559060005260206000209081019282156106a3579160200282015b828111156106a25782518260006101000a81548173ffffffffffffffffffffffffffffffffffffffff021916908373ffffffffffffffffffffffffffffffffffffffff1602179055509160200191906001019061064a565b5b5090506106b091906106b4565b5090565b5b808211156106cd5760008160009055506001016106b5565b5090565b6000819050919050565b6106e4816106d1565b82525050565b60006020820190506106ff60008301846106db565b92915050565b600080fd5b600073ffffffffffffffffffffffffffffffffffffffff82169050919050565b60006107358261070a565b9050919050565b6107458161072a565b811461075057600080fd5b50565b6000813590506107628161073c565b92915050565b60006020828403121561077e5761077d610705565b5b600061078c84828501610753565b91505092915050565b61079e8161072a565b82525050565b60006020820190506107b96000830184610795565b92915050565b6107c8816106d1565b81146107d357600080fd5b50565b6000813590506107e5816107bf565b92915050565b60006020828403121561080157610800610705565b5b600061080f848285016107d6565b91505092915050565b7f4e487b7100000000000000000000000000000000000000000000000000000000600052603260045260246000fd5b7f4e487b7100000000000000000000000000000000000000000000000000000000600052601160045260246000fd5b6000610881826106d1565b91507fffffffffffffffffffffffffffffffffffffffffffffffffffffffffffffffff82036108b3576108b2610847565b5b600182019050919050565b7f4e487b7100000000000000000000000000000000000000000000000000000000600052604160045260246000fd5b600081905092915050565b50565b60006109086000836108ed565b9150610913826108f8565b600082019050919050565b6000610929826108fb565b9150819050919050565b600082825260208201905092915050565b7f4469646e27742073656e6420656e6f7567680000000000000000000000000000600082015250565b600061097a601283610933565b915061098582610944565b602082019050919050565b600060208201905081810360008301526109a98161096d565b9050919050565b60006109bb826106d1565b91506109c6836106d1565b92508282026109d4816106d1565b915082820484148315176109eb576109ea610847565b5b5092915050565b7f4e487b7100000000000000000000000000000000000000000000000000000000600052601260045260246000fd5b6000610a2c826106d1565b9150610a37836106d1565b925082610a4757610a466109f2565b5b828204905092915050565b600069ffffffffffffffffffff82169050919050565b610a7181610a52565b8114610a7c57600080fd5b50565b600081519050610a8e81610a68565b92915050565b6000819050919050565b610aa781610a94565b8114610ab257600080fd5b50565b600081519050610ac481610a9e565b92915050565b600081519050610ad9816107bf565b92915050565b600080600080600060a08688031215610afb57610afa610705565b5b6000610b0988828901610a7f565b9550506020610b1a88828901610ab5565b9450506040610b2b88828901610aca565b9350506060610b3c88828901610aca565b9250506080610b4d88828901610a7f565b9150509295509295909350565b6000610b6582610a94565b9150610b7083610a94565b9250828202610b7e81610a94565b91507f80000000000000000000000000000000000000000000000000000000000000008414600084121615610bb657610bb5610847565b5b8282058414831517610bcb57610bca610847565b5b509291505056fea264697066735822122092188c969ed9ab91b0e068c31aa1995bf49c0000ffafdc2aa5086b93d707a29864736f6c63430008130033",
  "devdoc": {
    "kind": "dev",
    "methods": {},
    "version": 1
  },
  "userdoc": {
    "kind": "user",
    "methods": {},
    "version": 1
  },
  "storageLayout": {
    "storage": [
      {
        "astId": 62,
        "contract": "contracts/FundMe.sol:FundMe",
        "label": "funders",
        "offset": 0,
        "slot": "0",
        "type": "t_array(t_address)dyn_storage"
      },
      {
        "astId": 66,
        "contract": "contracts/FundMe.sol:FundMe",
        "label": "addressToAmount",
        "offset": 0,
        "slot": "1",
        "type": "t_mapping(t_address,t_uint256)"
      },
      {
        "astId": 69,
        "contract": "contracts/FundMe.sol:FundMe",
        "label": "priceFeed",
        "offset": 0,
        "slot": "2",
        "type": "t_contract(AggregatorV3Interface)45"
      }
    ],
    "types": {
      "t_address": {
        "encoding": "inplace",
        "label": "address",
        "numberOfBytes": "20"
      },
      "t_array(t_address)dyn_storage": {
        "base": "t_address",
        "encoding": "dynamic_array",
        "label": "address[]",
        "numberOfBytes": "32"
      },
      "t_contract(AggregatorV3Interface)45": {
        "encoding": "inplace",
        "label": "contract AggregatorV3Interface",
        "numberOfBytes": "20"
      },
      "t_mapping(t_address,t_uint256)": {
        "encoding": "mapping",
        "key": "t_address",
        "label": "mapping(address => uint256)",
        "numberOfBytes": "32",
        "value": "t_uint256"
      },
      "t_uint256": {
        "encoding": "inplace",
        "label": "uint256",
        "numberOfBytes": "32"
      }
    }
  }
}